:1000000071C000008EC000008CC000008AC00000DB
:1000100088C0000086C0000084C0000082C00000CC
:1000200080C0000039C300007CC000007AC000001E
:1000300078C0000076C0000074C0000072C00000EC
:1000400070C000000CC4000037C4000062C400008F
:10005000D9C3000066C0000064C0000062C0000098
:1000600060C000005EC000005CC000005AC000001C
:1000700058C0000056C0000054C0000052C000002C
:10008000A2C40000CDC40000F8C400006FC400008A
:1000900048C0000046C0000044C0000042C000004C
:1000A00040C000003EC0000042C500006DC5000019
:1000B00098C500000FC5000034C00000ECC500006A
:1000C00017C6000042C60000B9C500002AC00000E3
:1000D00028C0000026C0000024C0000022C000008C
:1000E00020C0000011241FBECFEFD1E2DEBFCDBF84
:1000F00000E00CBF12E0A0E0B2E0E4E3FEE000E0CC
:100100000BBF02C007900D92A030B107D9F722E0D3
:10011000A0E0B2E001C01D92AF32B207E1F753D6C2
:1001200087C66ECFB3D080930002809100020895FD
:100130001F93CF93DF931F92CDB7DEB79FB79983FD
:10014000F8941981909100029923D9F0813061F4DB
:10015000809100028330A9F088D28093000281E070
:100160007ED1809300020DC081110BC080910002EE
:10017000843039F07AD28093000280E070D180938D
:1001800000021FBF809100020F90DF91CF911F915D
:1001900008951F93CF93DF931F92CDB7DEB79FB71C
:1001A0009983F8941981909100029923D9F08130B4
:1001B00061F4809100028530A9F057D2809300024B
:1001C00081E0D0D1809300020DC081110BC08091DD
:1001D0000002863039F049D28093000280E0C2D11B
:1001E000809300021FBF809100020F90DF91CF919A
:1001F0001F9108951F93CF93DF931F92CDB7DEB762
:100200008FB78983F894198180910002882319F0AF
:100210002CD2809300021FBF809100020F90DF91CB
:10022000CF911F910895CF93DF931F92CDB7DEB783
:100230008FEF80936400809365008FB78983F89473
:1002400089815F9350E85093610050E050936100C2
:100250005F918FBF0F90DF91CF910895CF93DF9380
:100260001F92CDB7DEB79FB79983F89499818230FA
:1002700040F4E82FF0E0EC59FF4F6095808168234F
:1002800060839FBF0F90DF91CF910895CF93DF934D
:10029000EB01823008F0C8D51092090210920802D2
:1002A00010920502109204021092030210920202B0
:1002B00010920102882319F08130D1F032C080E918
:1002C00090E090930902809308028EE290E0909370
:1002D00007028093060280E88093040288E08093FE
:1002E000030280E18093020268E081E0B7DF1BC077
:1002F00080EA90E0909309028093080282E091E006
:10030000909307028093060280E48093040288E0C1
:100310008093030280E18093020260E181E09EDF2E
:1003200002C010920A026091030280910202682BBF
:10033000809106029091070238D26091040285E212
:1003400090E047D2E0910802F09109028081806C30
:1003500080838181806181838081806380838181CA
:1003600080618183E038F10591F4A1E8B0E08C91DF
:1003700085608C938FEF9FEF90938500809384002E
:1003800080E197E290938700809386003FC0E03938
:10039000F10591F4A1E9B0E08C9185608C938FEF29
:1003A0009FEF909395008093940080E197E2909363
:1003B0009700809396002AC0E03AF10591F4A1EAF3
:1003C000B0E08C9185608C938FEF9FEF9093A500A8
:1003D0008093A40080E197E29093A7008093A60009
:1003E00015C0E03221E0F20789F4A1E2B1E08C917E
:1003F00085608C938FEF9FEF90932501809324016C
:1004000080E197E290932701809326011186108660
:100410001386128680910402803831F4EBE6F0E016
:1004200080818068808309C080910402803429F42F
:10043000EBE6F0E0808180648083E8E6F0E0808194
:10044000816080837894D0930C02C0930B0282E089
:1004500080930A0280910A02DF91CF910895CF9391
:10046000C82F823008F0E0D410920102E0910B0214
:10047000F0910C02809101021995C130B9F583E029
:1004800080930A02809108029091090280389105B8
:1004900039F480ED97E090938700809386001DC02B
:1004A0008039910539F480ED97E09093970080931F
:1004B000960013C0803A910539F480ED97E090934F
:1004C000A7008093A60009C08032914031F480EDEE
:1004D00097E09093270180932601E0910802F09124
:1004E000090283E0818788EE808738C0C11136C059
:1004F00084E080930A02809108029091090280387A
:10050000910539F480E197E290938700809386000B
:100510001DC08039910539F480E197E290939700EE
:100520008093960013C0803A910539F480E197E2F8
:100530009093A7008093A60009C08032914031F4C7
:1005400080E197E29093270180932601E0910802D1
:10055000F091090283E1818788E8808780910A020F
:10056000CF910895CF93C82F823008F05DD41092B8
:100570000102E0910B02F0910C02809101021995A9
:10058000C130B9F585E080930A028091080290910C
:1005900009028038910539F480ED97E09093870047
:1005A000809386001DC08039910539F480ED97E075
:1005B000909397008093960013C0803A910539F488
:1005C00080ED97E09093A7008093A60009C0803249
:1005D000914031F480ED97E09093270180932601BC
:1005E000E0910802F091090283E0838788EE828718
:1005F00038C0C11136C086E080930A02809108029B
:10060000909109028038910539F480E197E2909346
:100610008700809386001DC08039910539F480E100
:1006200097E2909397008093960013C0803A9105CB
:1006300039F480E197E29093A7008093A60009C067
:100640008032914031F480E197E2909327018093CA
:100650002601E0910802F091090283E1838788E88E
:10066000828780910A02CF91089510920102E09151
:100670000B02F0910C02809101021995E0910802A1
:10068000F0910902138612861186108682E080930B
:100690000A0280910A0208951F920F920FB60F92DC
:1006A00011240BB60F922F933F934F935F936F9349
:1006B0007F938F939F93AF93BF93EF93FF9360913B
:1006C000040285E290E096D0882309F45BC0909103
:1006D000010281E089278093010280910102882331
:1006E000C9F180910802909109028038910539F48E
:1006F00080ED97E090938700809386001DC080393D
:10070000910539F480ED97E09093970080939600DF
:1007100013C0803A910539F480ED97E09093A700DB
:100720008093A60009C08032914031F480ED97E0BB
:100730009093270180932601E0910802F09109022D
:1007400093E0918788EE80879387828787E0809304
:100750000A020BC0E0910802F0910902138612868A
:100760001186108682E080930A0280910B0290919C
:100770000C02892B39F0E0910B02F0910C02809170
:1007800001021995FF91EF91BF91AF919F918F91C8
:100790007F916F915F914F913F912F910F900BBE81
:1007A0000F900FBE0F901F901895FC012291262BE1
:1007B0002083FC012081622B60830895FC019081DD
:1007C0006095692360830895FC012081622B60831A
:1007D0000895FC012291362F309523232083FC01BC
:1007E0002081622B608308950297FC0180818095AF
:1007F000862308950297FC018081682381E009F037
:1008000080E008951F920F920FB60F9211240BB63D
:100810000F922F933F934F935F936F937F938F9399
:100820009F93AF93BF93EF93FF93E0912B02F091CF
:100830002C02309709F01995FF91EF91BF91AF917C
:100840009F918F917F916F915F914F913F912F91E8
:100850000F900BBE0F900FBE0F901F9018951F9218
:100860000F920FB60F9211240BB60F922F933F9356
:100870004F935F936F937F938F939F93AF93BF93A8
:10088000EF93FF93E0912902F0912A02309709F04B
:100890001995FF91EF91BF91AF919F918F917F91AA
:1008A0006F915F914F913F912F910F900BBE0F90E1
:1008B0000FBE0F901F9018951F920F920FB60F92B8
:1008C00011240BB60F922F933F934F935F936F9327
:1008D0007F938F939F93AF93BF93EF93FF93E09199
:1008E0002702F0912802309709F01995FF91EF91B6
:1008F000BF91AF919F918F917F916F915F914F9138
:100900003F912F910F900BBE0F900FBE0F901F9035
:1009100018951F920F920FB60F9211240BB60F92DB
:100920002F933F934F935F936F937F938F939F93F7
:10093000AF93BF93EF93FF93E0912502F0912602CE
:10094000309709F01995FF91EF91BF91AF919F9169
:100950008F917F916F915F914F913F912F910F9068
:100960000BBE0F900FBE0F901F9018951F920F9205
:100970000FB60F9211240BB60F922F933F934F9304
:100980005F936F937F938F939F93AF93BF93EF93F7
:10099000FF93E0912302F0912402309709F019951A
:1009A000FF91EF91BF91AF919F918F917F916F9147
:1009B0005F914F913F912F910F900BBE0F900FBE03
:1009C0000F901F9018951F920F920FB60F9211243F
:1009D0000BB60F922F933F934F935F936F937F9339
:1009E0008F939F93AF93BF93EF93FF93E091210277
:1009F000F0912202309709F01995FF91EF91BF9184
:100A0000AF919F918F917F916F915F914F913F91A6
:100A10002F910F900BBE0F900FBE0F901F90189547
:100A20001F920F920FB60F9211240BB60F922F93B5
:100A30003F934F935F936F937F938F939F93AF9366
:100A4000BF93EF93FF93E0911F02F0912002309744
:100A500009F01995FF91EF91BF91AF919F918F91FF
:100A60007F916F915F914F913F912F910F900BBEAE
:100A70000F900FBE0F901F9018951F920F920FB6F8
:100A80000F9211240BB60F922F933F934F935F93C6
:100A90006F937F938F939F93AF93BF93EF93FF9346
:100AA000E0911D02F0911E02309709F01995FF9117
:100AB000EF91BF91AF919F918F917F916F915F91D6
:100AC0004F913F912F910F900BBE0F900FBE0F9043
:100AD0001F9018951F920F920FB60F9211240BB60C
:100AE0000F922F933F934F935F936F937F938F93C7
:100AF0009F93AF93BF93EF93FF93E0911B02F0910D
:100B00001C02309709F01995FF91EF91BF91AF91B9
:100B10009F918F917F916F915F914F913F912F9115
:100B20000F900BBE0F900FBE0F901F9018951F9245
:100B30000F920FB60F9211240BB60F922F933F9383
:100B40004F935F936F937F938F939F93AF93BF93D5
:100B5000EF93FF93E0911902F0911A02309709F098
:100B60001995FF91EF91BF91AF919F918F917F91D7
:100B70006F915F914F913F912F910F900BBE0F900E
:100B80000FBE0F901F9018951F920F920FB60F92E5
:100B900011240BB60F922F933F934F935F936F9354
:100BA0007F938F939F93AF93BF93EF93FF93E091C6
:100BB0001702F0911802309709F01995FF91EF9103
:100BC000BF91AF919F918F917F916F915F914F9165
:100BD0003F912F910F900BBE0F900FBE0F901F9063
:100BE00018951F920F920FB60F9211240BB60F9209
:100BF0002F933F934F935F936F937F938F939F9325
:100C0000AF93BF93EF93FF93E0911502F09116021B
:100C1000309709F01995FF91EF91BF91AF919F9196
:100C20008F917F916F915F914F913F912F910F9095
:100C30000BBE0F900FBE0F901F9018951F920F9232
:100C40000FB60F9211240BB60F922F933F934F9331
:100C50005F936F937F938F939F93AF93BF93EF9324
:100C6000FF93E0911302F0911402309709F0199567
:100C7000FF91EF91BF91AF919F918F917F916F9174
:100C80005F914F913F912F910F900BBE0F900FBE30
:100C90000F901F9018951F920F920FB60F9211246C
:100CA0000BB60F922F933F934F935F936F937F9366
:100CB0008F939F93AF93BF93EF93FF93E0911102B4
:100CC000F0911202309709F01995FF91EF91BF91C1
:100CD000AF919F918F917F916F915F914F913F91D4
:100CE0002F910F900BBE0F900FBE0F901F90189575
:100CF0001F920F920FB60F9211240BB60F922F93E3
:100D00003F934F935F936F937F938F939F93AF9393
:100D1000BF93EF93FF93E0910F02F0911002309791
:100D200009F01995FF91EF91BF91AF919F918F912C
:100D30007F916F915F914F913F912F910F900BBEDB
:100D40000F900FBE0F901F9018951F920F920FB625
:100D50000F9211240BB60F922F933F934F935F93F3
:100D60006F937F938F939F93AF93BF93EF93FF9373
:100D7000E0910D02F0910E02309709F01995FF9164
:100D8000EF91BF91AF919F918F917F916F915F9103
:100D90004F913F912F910F900BBE0F900FBE0F9070
:100DA0001F9018950895882339F060E280912D02F4
:100DB00090912E0203CD089560E280912D029091D2
:100DC0002E0202CD0895EEDF2EDA6FE185E290E08B
:100DD00000DD8EE290E090932E0280932D0260E27F
:100DE000E4DC63ED76E080E09DD96FE185E290E0A0
:100DF000FBDC8430A1F028F4813059F0823031F0EE
:100E0000F4CF883049F0803169F0EFCF81E090D99C
:100E1000ECCF80E08DD9E9CF81E0BBD9E6CF80E08F
:100E2000B8D9E3CFE7D9E1CF81E090E0F89400C0F2
:040E3000F894FFCF64
:00000001FF
